{"abi":[{"type":"constructor","inputs":[{"name":"token0_","type":"address","internalType":"address"},{"name":"token1_","type":"address","internalType":"address"},{"name":"sqrtPriceX96","type":"uint160","internalType":"uint160"},{"name":"tick","type":"int24","internalType":"int24"}],"stateMutability":"nonpayable"},{"type":"function","name":"liquidity","inputs":[],"outputs":[{"name":"","type":"uint128","internalType":"uint128"}],"stateMutability":"view"},{"type":"function","name":"mint","inputs":[{"name":"owner","type":"address","internalType":"address"},{"name":"lowerTick","type":"int24","internalType":"int24"},{"name":"upperTick","type":"int24","internalType":"int24"},{"name":"amount","type":"uint128","internalType":"uint128"},{"name":"data","type":"bytes","internalType":"bytes"}],"outputs":[{"name":"amount0","type":"uint256","internalType":"uint256"},{"name":"amount1","type":"uint256","internalType":"uint256"}],"stateMutability":"nonpayable"},{"type":"function","name":"positions","inputs":[{"name":"","type":"bytes32","internalType":"bytes32"}],"outputs":[{"name":"liquidity","type":"uint128","internalType":"uint128"}],"stateMutability":"view"},{"type":"function","name":"slot0","inputs":[],"outputs":[{"name":"sqrtPriceX96","type":"uint160","internalType":"uint160"},{"name":"tick","type":"int24","internalType":"int24"}],"stateMutability":"view"},{"type":"function","name":"swap","inputs":[{"name":"recipient","type":"address","internalType":"address"},{"name":"data","type":"bytes","internalType":"bytes"}],"outputs":[{"name":"amount0","type":"int256","internalType":"int256"},{"name":"amount1","type":"int256","internalType":"int256"}],"stateMutability":"nonpayable"},{"type":"function","name":"ticks","inputs":[{"name":"","type":"int24","internalType":"int24"}],"outputs":[{"name":"initialized","type":"bool","internalType":"bool"},{"name":"liquidity","type":"uint128","internalType":"uint128"}],"stateMutability":"view"},{"type":"function","name":"token0","inputs":[],"outputs":[{"name":"","type":"address","internalType":"address"}],"stateMutability":"view"},{"type":"function","name":"token1","inputs":[],"outputs":[{"name":"","type":"address","internalType":"address"}],"stateMutability":"view"},{"type":"event","name":"Mint","inputs":[{"name":"sender","type":"address","indexed":false,"internalType":"address"},{"name":"owner","type":"address","indexed":true,"internalType":"address"},{"name":"tickLower","type":"int24","indexed":true,"internalType":"int24"},{"name":"tickUpper","type":"int24","indexed":true,"internalType":"int24"},{"name":"amount","type":"uint128","indexed":false,"internalType":"uint128"},{"name":"amount0","type":"uint256","indexed":false,"internalType":"uint256"},{"name":"amount1","type":"uint256","indexed":false,"internalType":"uint256"}],"anonymous":false},{"type":"event","name":"Swap","inputs":[{"name":"sender","type":"address","indexed":true,"internalType":"address"},{"name":"recipient","type":"address","indexed":true,"internalType":"address"},{"name":"amount0","type":"int256","indexed":false,"internalType":"int256"},{"name":"amount1","type":"int256","indexed":false,"internalType":"int256"},{"name":"sqrtPriceX96","type":"uint160","indexed":false,"internalType":"uint160"},{"name":"liquidity","type":"uint128","indexed":false,"internalType":"uint128"},{"name":"tick","type":"int24","indexed":false,"internalType":"int24"}],"anonymous":false},{"type":"error","name":"InsufficientInputAmount","inputs":[]},{"type":"error","name":"InvalidTickRange","inputs":[]},{"type":"error","name":"ZeroLiquidity","inputs":[]}],"bytecode":{"object":"0x60c060405234801561000f575f5ffd5b50604051611687380380611687833981810160405281019061003191906101fd565b8373ffffffffffffffffffffffffffffffffffffffff1660808173ffffffffffffffffffffffffffffffffffffffff16815250508273ffffffffffffffffffffffffffffffffffffffff1660a08173ffffffffffffffffffffffffffffffffffffffff168152505060405180604001604052808373ffffffffffffffffffffffffffffffffffffffff1681526020018260020b8152505f5f820151815f015f6101000a81548173ffffffffffffffffffffffffffffffffffffffff021916908373ffffffffffffffffffffffffffffffffffffffff1602179055506020820151815f0160146101000a81548162ffffff021916908360020b62ffffff16021790555090505050505050610261565b5f5ffd5b5f73ffffffffffffffffffffffffffffffffffffffff82169050919050565b5f61016c82610143565b9050919050565b61017c81610162565b8114610186575f5ffd5b50565b5f8151905061019781610173565b92915050565b6101a681610143565b81146101b0575f5ffd5b50565b5f815190506101c18161019d565b92915050565b5f8160020b9050919050565b6101dc816101c7565b81146101e6575f5ffd5b50565b5f815190506101f7816101d3565b92915050565b5f5f5f5f608085870312156102155761021461013f565b5b5f61022287828801610189565b945050602061023387828801610189565b9350506040610244878288016101b3565b9250506060610255878288016101e9565b91505092959194509250565b60805160a0516113f06102975f395f81816105f40152610b4601525f81816101c8015281816106cd0152610aa701526113f05ff3fe608060405234801561000f575f5ffd5b5060043610610086575f3560e01c8063514ea4bf11610059578063514ea4bf14610116578063d21220a714610146578063e354733514610164578063f30dba931461019557610086565b80630dfe16811461008a5780631a686502146100a85780633850c7bd146100c65780633c8a7d8d146100e5575b5f5ffd5b6100926101c6565b60405161009f9190610c21565b60405180910390f35b6100b06101ea565b6040516100bd9190610c64565b60405180910390f35b6100ce61020b565b6040516100dc929190610ca7565b60405180910390f35b6100ff60048036038101906100fa9190610db5565b610246565b60405161010d929190610e63565b60405180910390f35b610130600480360381019061012b9190610ebd565b6105bd565b60405161013d9190610c64565b60405180910390f35b61014e6105f2565b60405161015b9190610c21565b60405180910390f35b61017e60048036038101906101799190610ee8565b610616565b60405161018c929190610f5d565b60405180910390f35b6101af60048036038101906101aa9190610f84565b6108e6565b6040516101bd929190610fc9565b60405180910390f35b7f000000000000000000000000000000000000000000000000000000000000000081565b60015f9054906101000a90046fffffffffffffffffffffffffffffffff1681565b5f805f015f9054906101000a900473ffffffffffffffffffffffffffffffffffffffff1690805f0160149054906101000a900460020b905082565b5f5f8560020b8760020b12158061028257507ffffffffffffffffffffffffffffffffffffffffffffffffffffffffffff2761860020b8760020b125b806102bb57507ffffffffffffffffffffffffffffffffffffffffffffffffffffffffffff276186102b29061101d565b60020b8660020b135b156102f2576040517f064847d000000000000000000000000000000000000000000000000000000000815260040160405180910390fd5b5f856fffffffffffffffffffffffffffffffff160361033d576040517f1007454800000000000000000000000000000000000000000000000000000000815260040160405180910390fd5b6103538786600261092d9092919063ffffffff16565b6103698686600261092d9092919063ffffffff16565b5f61038289898960036109ef909392919063ffffffff16565b90506103978682610a3490919063ffffffff16565b670ddd13f10b84ee00925069010f0cf064dd5920000091508560015f8282829054906101000a90046fffffffffffffffffffffffffffffffff166103db9190611063565b92506101000a8154816fffffffffffffffffffffffffffffffff02191690836fffffffffffffffffffffffffffffffff1602179055505f5f5f85111561042657610423610aa4565b91505b5f84111561043957610436610b43565b90505b3373ffffffffffffffffffffffffffffffffffffffff1663d348799786868a8a6040518563ffffffff1660e01b81526004016104789493929190611100565b5f604051808303815f87803b15801561048f575f5ffd5b505af11580156104a1573d5f5f3e3d5ffd5b505050505f851180156104c557506104b7610aa4565b85836104c3919061113e565b115b156104fc576040517f098fb56100000000000000000000000000000000000000000000000000000000815260040160405180910390fd5b5f8411801561051c575061050e610b43565b848261051a919061113e565b115b15610553576040517f098fb56100000000000000000000000000000000000000000000000000000000815260040160405180910390fd5b8860020b8a60020b8c73ffffffffffffffffffffffffffffffffffffffff167f7a53080ba414158be7ec69b987b5fb7d07dee101fe85488f0853ae16239d0bde338c8a8a6040516105a79493929190611171565b60405180910390a4505050965096945050505050565b6003602052805f5260405f205f91509050805f015f9054906101000a90046fffffffffffffffffffffffffffffffff16905081565b7f000000000000000000000000000000000000000000000000000000000000000081565b5f5f5f62014cc090505f6c46bd046408013d67ed5d406b2d90507fffffffffffffffffffffffffffffffffffffffffffffffffffe22b3b9e50c0f49350680246ddf97976680000925081815f5f0160145f5f015f8491906101000a81548173ffffffffffffffffffffffffffffffffffffffff021916908373ffffffffffffffffffffffffffffffffffffffff1602179055508391906101000a81548162ffffff021916908360020b62ffffff16021790555050507f000000000000000000000000000000000000000000000000000000000000000073ffffffffffffffffffffffffffffffffffffffff1663a9059cbb8886610712906111b4565b6040518363ffffffff1660e01b815260040161072f9291906111fa565b5f604051808303815f87803b158015610746575f5ffd5b505af1158015610758573d5f5f3e3d5ffd5b505050505f610765610b43565b90503373ffffffffffffffffffffffffffffffffffffffff1663fa461e3386868a8a6040518563ffffffff1660e01b81526004016107a69493929190611221565b5f604051808303815f87803b1580156107bd575f5ffd5b505af11580156107cf573d5f5f3e3d5ffd5b505050506107db610b43565b84826107e7919061113e565b111561081f576040517f098fb56100000000000000000000000000000000000000000000000000000000815260040160405180910390fd5b8773ffffffffffffffffffffffffffffffffffffffff163373ffffffffffffffffffffffffffffffffffffffff167fc42079f94a6350d7e6235f29174924f928cc2ac818eb64fed8004e115fbcca6787875f5f015f9054906101000a900473ffffffffffffffffffffffffffffffffffffffff1660015f9054906101000a90046fffffffffffffffffffffffffffffffff165f5f0160149054906101000a900460020b6040516108d395949392919061125f565b60405180910390a3505050935093915050565b6002602052805f5260405f205f91509050805f015f9054906101000a900460ff1690805f0160019054906101000a90046fffffffffffffffffffffffffffffffff16905082565b5f835f8460020b60020b81526020019081526020015f2090505f815f0160019054906101000a90046fffffffffffffffffffffffffffffffff1690505f83826109769190611063565b90505f826fffffffffffffffffffffffffffffffff16036109ad576001835f015f6101000a81548160ff0219169083151502179055505b80835f0160016101000a8154816fffffffffffffffffffffffffffffffff02191690836fffffffffffffffffffffffffffffffff160217905550505050505050565b5f845f858585604051602001610a0793929190611329565b6040516020818303038152906040528051906020012081526020019081526020015f209050949350505050565b5f825f015f9054906101000a90046fffffffffffffffffffffffffffffffff1690505f8282610a639190611063565b905080845f015f6101000a8154816fffffffffffffffffffffffffffffffff02191690836fffffffffffffffffffffffffffffffff16021790555050505050565b5f7f000000000000000000000000000000000000000000000000000000000000000073ffffffffffffffffffffffffffffffffffffffff166370a08231306040518263ffffffff1660e01b8152600401610afe9190610c21565b6020604051808303815f875af1158015610b1a573d5f5f3e3d5ffd5b505050506040513d601f19601f82011682018060405250810190610b3e919061138f565b905090565b5f7f000000000000000000000000000000000000000000000000000000000000000073ffffffffffffffffffffffffffffffffffffffff166370a08231306040518263ffffffff1660e01b8152600401610b9d9190610c21565b6020604051808303815f875af1158015610bb9573d5f5f3e3d5ffd5b505050506040513d601f19601f82011682018060405250810190610bdd919061138f565b905090565b5f73ffffffffffffffffffffffffffffffffffffffff82169050919050565b5f610c0b82610be2565b9050919050565b610c1b81610c01565b82525050565b5f602082019050610c345f830184610c12565b92915050565b5f6fffffffffffffffffffffffffffffffff82169050919050565b610c5e81610c3a565b82525050565b5f602082019050610c775f830184610c55565b92915050565b610c8681610be2565b82525050565b5f8160020b9050919050565b610ca181610c8c565b82525050565b5f604082019050610cba5f830185610c7d565b610cc76020830184610c98565b9392505050565b5f5ffd5b5f5ffd5b610cdf81610c01565b8114610ce9575f5ffd5b50565b5f81359050610cfa81610cd6565b92915050565b610d0981610c8c565b8114610d13575f5ffd5b50565b5f81359050610d2481610d00565b92915050565b610d3381610c3a565b8114610d3d575f5ffd5b50565b5f81359050610d4e81610d2a565b92915050565b5f5ffd5b5f5ffd5b5f5ffd5b5f5f83601f840112610d7557610d74610d54565b5b8235905067ffffffffffffffff811115610d9257610d91610d58565b5b602083019150836001820283011115610dae57610dad610d5c565b5b9250929050565b5f5f5f5f5f5f60a08789031215610dcf57610dce610cce565b5b5f610ddc89828a01610cec565b9650506020610ded89828a01610d16565b9550506040610dfe89828a01610d16565b9450506060610e0f89828a01610d40565b935050608087013567ffffffffffffffff811115610e3057610e2f610cd2565b5b610e3c89828a01610d60565b92509250509295509295509295565b5f819050919050565b610e5d81610e4b565b82525050565b5f604082019050610e765f830185610e54565b610e836020830184610e54565b9392505050565b5f819050919050565b610e9c81610e8a565b8114610ea6575f5ffd5b50565b5f81359050610eb781610e93565b92915050565b5f60208284031215610ed257610ed1610cce565b5b5f610edf84828501610ea9565b91505092915050565b5f5f5f60408486031215610eff57610efe610cce565b5b5f610f0c86828701610cec565b935050602084013567ffffffffffffffff811115610f2d57610f2c610cd2565b5b610f3986828701610d60565b92509250509250925092565b5f819050919050565b610f5781610f45565b82525050565b5f604082019050610f705f830185610f4e565b610f7d6020830184610f4e565b9392505050565b5f60208284031215610f9957610f98610cce565b5b5f610fa684828501610d16565b91505092915050565b5f8115159050919050565b610fc381610faf565b82525050565b5f604082019050610fdc5f830185610fba565b610fe96020830184610c55565b9392505050565b7f4e487b71000000000000000000000000000000000000000000000000000000005f52601160045260245ffd5b5f61102782610c8c565b91507fffffffffffffffffffffffffffffffffffffffffffffffffffffffffff800000820361105957611058610ff0565b5b815f039050919050565b5f61106d82610c3a565b915061107883610c3a565b925082820190506fffffffffffffffffffffffffffffffff8111156110a05761109f610ff0565b5b92915050565b5f82825260208201905092915050565b828183375f83830152505050565b5f601f19601f8301169050919050565b5f6110df83856110a6565b93506110ec8385846110b6565b6110f5836110c4565b840190509392505050565b5f6060820190506111135f830187610e54565b6111206020830186610e54565b81810360408301526111338184866110d4565b905095945050505050565b5f61114882610e4b565b915061115383610e4b565b925082820190508082111561116b5761116a610ff0565b5b92915050565b5f6080820190506111845f830187610c12565b6111916020830186610c55565b61119e6040830185610e54565b6111ab6060830184610e54565b95945050505050565b5f6111be82610f45565b91507f800000000000000000000000000000000000000000000000000000000000000082036111f0576111ef610ff0565b5b815f039050919050565b5f60408201905061120d5f830185610c12565b61121a6020830184610e54565b9392505050565b5f6060820190506112345f830187610f4e565b6112416020830186610f4e565b81810360408301526112548184866110d4565b905095945050505050565b5f60a0820190506112725f830188610f4e565b61127f6020830187610f4e565b61128c6040830186610c7d565b6112996060830185610c55565b6112a66080830184610c98565b9695505050505050565b5f8160601b9050919050565b5f6112c6826112b0565b9050919050565b5f6112d7826112bc565b9050919050565b6112ef6112ea82610c01565b6112cd565b82525050565b5f8160e81b9050919050565b5f61130b826112f5565b9050919050565b61132361131e82610c8c565b611301565b82525050565b5f61133482866112de565b6014820191506113448285611312565b6003820191506113548284611312565b600382019150819050949350505050565b61136e81610e4b565b8114611378575f5ffd5b50565b5f8151905061138981611365565b92915050565b5f602082840312156113a4576113a3610cce565b5b5f6113b18482850161137b565b9150509291505056fea264697066735822122063db806f0331a90ed45b08a6f717a79bd48f0b6b25d3fc89b589d1d76a87cd5164736f6c634300081e0033","linkReferences":{}},"methodIdentifiers":{"liquidity()":"1a686502","mint(address,int24,int24,uint128,bytes)":"3c8a7d8d","positions(bytes32)":"514ea4bf","slot0()":"3850c7bd","swap(address,bytes)":"e3547335","ticks(int24)":"f30dba93","token0()":"0dfe1681","token1()":"d21220a7"},"id":20}