{"abi":[{"type":"function","name":"mint","inputs":[{"name":"poolAddress_","type":"address","internalType":"address"},{"name":"lowerTick","type":"int24","internalType":"int24"},{"name":"upperTick","type":"int24","internalType":"int24"},{"name":"liquidity","type":"uint128","internalType":"uint128"},{"name":"data","type":"bytes","internalType":"bytes"}],"outputs":[{"name":"","type":"uint256","internalType":"uint256"},{"name":"","type":"uint256","internalType":"uint256"}],"stateMutability":"nonpayable"},{"type":"function","name":"swap","inputs":[{"name":"poolAddress_","type":"address","internalType":"address"},{"name":"data","type":"bytes","internalType":"bytes"}],"outputs":[{"name":"","type":"int256","internalType":"int256"},{"name":"","type":"int256","internalType":"int256"}],"stateMutability":"nonpayable"},{"type":"function","name":"uniswapV3MintCallback","inputs":[{"name":"amount0","type":"uint256","internalType":"uint256"},{"name":"amount1","type":"uint256","internalType":"uint256"},{"name":"data","type":"bytes","internalType":"bytes"}],"outputs":[],"stateMutability":"nonpayable"},{"type":"function","name":"uniswapV3SwapCallback","inputs":[{"name":"amount0","type":"int256","internalType":"int256"},{"name":"amount1","type":"int256","internalType":"int256"},{"name":"data","type":"bytes","internalType":"bytes"}],"outputs":[],"stateMutability":"nonpayable"}],"bytecode":{"object":"0x6080604052348015600e575f5ffd5b50610b258061001c5f395ff3fe608060405234801561000f575f5ffd5b506004361061004a575f3560e01c80633c8a7d8d1461004e578063d34879971461007f578063e35473351461009b578063fa461e33146100cc575b5f5ffd5b61006860048036038101906100639190610556565b6100e8565b604051610076929190610604565b60405180910390f35b61009960048036038101906100949190610655565b61017b565b005b6100b560048036038101906100b091906106c6565b610277565b6040516100c392919061073b565b60405180910390f35b6100e660048036038101906100e1919061078c565b610301565b005b5f5f8773ffffffffffffffffffffffffffffffffffffffff16633c8a7d8d3389898989896040518763ffffffff1660e01b815260040161012d96959493929190610884565b60408051808303815f875af1158015610148573d5f5f3e3d5ffd5b505050506040513d601f19601f8201168201806040525081019061016c91906108f2565b91509150965096945050505050565b5f828281019061018b9190610a0d565b9050805f015173ffffffffffffffffffffffffffffffffffffffff166323b872dd826040015133886040518463ffffffff1660e01b81526004016101d193929190610a38565b5f604051808303815f87803b1580156101e8575f5ffd5b505af11580156101fa573d5f5f3e3d5ffd5b50505050806020015173ffffffffffffffffffffffffffffffffffffffff166323b872dd826040015133876040518463ffffffff1660e01b815260040161024393929190610a38565b5f604051808303815f87803b15801561025a575f5ffd5b505af115801561026c573d5f5f3e3d5ffd5b505050505050505050565b5f5f8473ffffffffffffffffffffffffffffffffffffffff1663e35473353386866040518463ffffffff1660e01b81526004016102b693929190610a6d565b60408051808303815f875af11580156102d1573d5f5f3e3d5ffd5b505050506040513d601f19601f820116820180604052508101906102f59190610ab1565b91509150935093915050565b5f82828101906103119190610a0d565b90505f85131561038d57805f015173ffffffffffffffffffffffffffffffffffffffff166323b872dd826040015133886040518463ffffffff1660e01b815260040161035f93929190610a38565b5f604051808303815f87803b158015610376575f5ffd5b505af1158015610388573d5f5f3e3d5ffd5b505050505b5f84131561040857806020015173ffffffffffffffffffffffffffffffffffffffff166323b872dd826040015133876040518463ffffffff1660e01b81526004016103da93929190610a38565b5f604051808303815f87803b1580156103f1575f5ffd5b505af1158015610403573d5f5f3e3d5ffd5b505050505b5050505050565b5f604051905090565b5f5ffd5b5f5ffd5b5f73ffffffffffffffffffffffffffffffffffffffff82169050919050565b5f61044982610420565b9050919050565b6104598161043f565b8114610463575f5ffd5b50565b5f8135905061047481610450565b92915050565b5f8160020b9050919050565b61048f8161047a565b8114610499575f5ffd5b50565b5f813590506104aa81610486565b92915050565b5f6fffffffffffffffffffffffffffffffff82169050919050565b6104d4816104b0565b81146104de575f5ffd5b50565b5f813590506104ef816104cb565b92915050565b5f5ffd5b5f5ffd5b5f5ffd5b5f5f83601f840112610516576105156104f5565b5b8235905067ffffffffffffffff811115610533576105326104f9565b5b60208301915083600182028301111561054f5761054e6104fd565b5b9250929050565b5f5f5f5f5f5f60a087890312156105705761056f610418565b5b5f61057d89828a01610466565b965050602061058e89828a0161049c565b955050604061059f89828a0161049c565b94505060606105b089828a016104e1565b935050608087013567ffffffffffffffff8111156105d1576105d061041c565b5b6105dd89828a01610501565b92509250509295509295509295565b5f819050919050565b6105fe816105ec565b82525050565b5f6040820190506106175f8301856105f5565b61062460208301846105f5565b9392505050565b610634816105ec565b811461063e575f5ffd5b50565b5f8135905061064f8161062b565b92915050565b5f5f5f5f6060858703121561066d5761066c610418565b5b5f61067a87828801610641565b945050602061068b87828801610641565b935050604085013567ffffffffffffffff8111156106ac576106ab61041c565b5b6106b887828801610501565b925092505092959194509250565b5f5f5f604084860312156106dd576106dc610418565b5b5f6106ea86828701610466565b935050602084013567ffffffffffffffff81111561070b5761070a61041c565b5b61071786828701610501565b92509250509250925092565b5f819050919050565b61073581610723565b82525050565b5f60408201905061074e5f83018561072c565b61075b602083018461072c565b9392505050565b61076b81610723565b8114610775575f5ffd5b50565b5f8135905061078681610762565b92915050565b5f5f5f5f606085870312156107a4576107a3610418565b5b5f6107b187828801610778565b94505060206107c287828801610778565b935050604085013567ffffffffffffffff8111156107e3576107e261041c565b5b6107ef87828801610501565b925092505092959194509250565b6108068161043f565b82525050565b6108158161047a565b82525050565b610824816104b0565b82525050565b5f82825260208201905092915050565b828183375f83830152505050565b5f601f19601f8301169050919050565b5f610863838561082a565b935061087083858461083a565b61087983610848565b840190509392505050565b5f60a0820190506108975f8301896107fd565b6108a4602083018861080c565b6108b1604083018761080c565b6108be606083018661081b565b81810360808301526108d1818486610858565b9050979650505050505050565b5f815190506108ec8161062b565b92915050565b5f5f6040838503121561090857610907610418565b5b5f610915858286016108de565b9250506020610926858286016108de565b9150509250929050565b5f5ffd5b7f4e487b71000000000000000000000000000000000000000000000000000000005f52604160045260245ffd5b61096a82610848565b810181811067ffffffffffffffff8211171561098957610988610934565b5b80604052505050565b5f61099b61040f565b90506109a78282610961565b919050565b5f606082840312156109c1576109c0610930565b5b6109cb6060610992565b90505f6109da84828501610466565b5f8301525060206109ed84828501610466565b6020830152506040610a0184828501610466565b60408301525092915050565b5f60608284031215610a2257610a21610418565b5b5f610a2f848285016109ac565b91505092915050565b5f606082019050610a4b5f8301866107fd565b610a5860208301856107fd565b610a6560408301846105f5565b949350505050565b5f604082019050610a805f8301866107fd565b8181036020830152610a93818486610858565b9050949350505050565b5f81519050610aab81610762565b92915050565b5f5f60408385031215610ac757610ac6610418565b5b5f610ad485828601610a9d565b9250506020610ae585828601610a9d565b915050925092905056fea2646970667358221220c0e712a0f343deef1a5caee6dd309cf3d3c50fa1e222ff95d7b2509236179ea964736f6c634300081e0033","linkReferences":{}},"methodIdentifiers":{"mint(address,int24,int24,uint128,bytes)":"3c8a7d8d","swap(address,bytes)":"e3547335","uniswapV3MintCallback(uint256,uint256,bytes)":"d3487997","uniswapV3SwapCallback(int256,int256,bytes)":"fa461e33"},"id":0}